:10000000020A5904154A9896800213000101120051
:10001000021DFF0004194BEA6000C10AC189C10832
:10002000020E002D0208020C0210040B00EE30E755
:0900300007C3E49FFFE49EFE22D9
:03003B0002384444
:10004300023875020407E86480F8E933E833601185
:100053000460F0ED33EC337009E8FCE9FDEAFEEBF4
:10006300FF220460DED3EB9FEA9EE99DE8C2E78CA2
:10007300F0C2F795F0400CE8CCF8E9CDF9EACEFAF6
:10008300EBCFFB1203D285D0F05804700320D5B315
:10009300E80470075002B2D502041192D5EC046053
:1000A300F7E4CCC0E0C398F8603B94186008400DB7
:1000B300D0E0FB0203E9E4FBFAC9FC8028E830E462
:1000C30006E4C9FBE4CAFCE830E305E4C9CACBFC97
:1000D300E854076010F8C3E913F9EA13FAEB13FBCA
:1000E300EC13FCD8F130F52FC3E49CFCEF9BFFEE3F
:1000F3009AFEED99FDD0E0FBEF4E4D4C701222DBE2
:100103000302040EEC2CFCEF33FFEE33FEED33FD64
:10011300ED30E7EB0203E9EF2BFFEE3AFEED39FD9D
:10012300D0E0FB50130BBB0003020411ED13FDEEF3
:1001330013FEEF13FFEC13FC0203E9EC4D6011E82F
:10014300497017ED33EC3304600DE4FCFFFEFD2230
:10015300E933E8330470F80204071203D258046049
:1001630009E4CC24815006285009020411284003D5
:1001730002040EC0E0EB4A7044B98006D0E0FB02F3
:1001830003FDEF4E701CBD8008EBFFEAFEE9FD8026
:10019300EBE98DF0A4FEE5F0020227E9CDF9EAFED2
:1001A300EBFFEF89F0A4FCE5F0CE89F0A42EFFE489
:1001B30035F0CD89F0A42DFEE435F08067EF4E7065
:1001C30005BD80D780C3EF8BF0A4ACF0EE8BF0A419
:1001D3002CFCE435F0F8EF8AF0A42CE5F038FCE4CD
:1001E30033CB8DF0A42CFCE5F03BF8EE8AF0A42C85
:1001F300FCE5F038F8E433CF89F0A42CFCE5F038C3
:10020300CF3400CE89F0A42FFFE5F03EFEE433C9DE
:100213008DF0A42EFEE5F039CD8AF0A42FFFE5F092
:100223003EFEE43DFD33D0E0FB50070BBB000F0265
:100233000411EC2CFCEF33FFEE33FEED33FD020330
:10024300E9020411EC5D046005E85904700302043B
:10025300071203D2580460F6EC4860F2EC7004FD18
:10026300FEFF22C860DB2481C85009C39860025096
:100273000602040E9850CAF582E9294B4A7005AB71
:10028300820203FD75F0007C1A7880C3EF9BEE9A1F
:10029300ED99400DC3EF9BFFEE9AFEED99FDE84209
:1002A300F0DC23ACF0D0E0FFD0E0FED0E0FDAB8289
:1002B30020E7101BEB60BAEC2CFCEF33FFEE33FEB0
:1002C300ED33FD0203E9E803F830E705C0F075F00C
:1002D30000EF2FFFEE33FEED33FD40B830E7C28071
:1002E300AA74F8CC6480CCC86480C8F58204604FDB
:1002F300C3EB9FF5F0EA9E42F0E99D42F0E89C458E
:10030300F0603C501DE5825FFFE582D313CB5BCBEE
:10031300F42B5582FB50280ABA002409B90020089F
:10032300801DE5825BFBE582D313CF5FCFF4C3135C
:100333002F5582FF50090EBE00050DBD00010CC3F1
:10034300EB9FF5F0EA9E42F0E99D42F0E89C45F010
:100353006007CC4820E701B3EC2275F020800E75CE
:10036300F010800575F0087D007E007F003392D584
:1003730030D5031206C4EC334010EF33FFEE33FEE7
:10038300ED33FDEC33FCD5F0ED22E5F0247EA2D570
:1003930013CC92E7CDCEFF22EDD2E7CD33EC3392EF
:1003A300D524814006E4FFFEFDFC22FCE4CFCECD44
:1003B300CC24E0501174FF80EDC3CC13CCCD13CD0E
:1003C300CE13CECF13CF0470F030D5DE0206C4E9CE
:1003D300D2E7C933E833F892D5EDD2E7CD33EC3326
:1003E300FC5002B2D522EC30E7100FBF000C0EBE5A
:1003F30000080DBD00040BEB6014A2D5EB13FCED5C
:1004030092E7FD2274FFFCFDFEFF22E480F8A2D5F3
:1004130074FF13FC7D80E480EFED33EC3360100454
:10042300700FED547F7005740292E022740422046D
:1004330022E422ED33EC33600A047003BD8004EC44
:10044300B2E7FC22C0E0EFFBEEFAEDF9ECF81201A3
:100453003ED0E0F5F0EFFBEEFAEDF9ECF8120715FC
:10046300A3A3A3A3E8C0E0E9C0E0EAC0E0EBC0E0D7
:10047300C0F012013E120725A3A3A3A312004DD07F
:10048300F0D0E0FBD0E0FAD0E0F9D0E0F8D5F0D43A
:1004930022E709F608DFFA8046E709F208DFFA8067
:1004A3003E88828C83E709F0A3DFFA8032E309F602
:1004B30008DFFA8078E309F208DFFA807088828C1B
:1004C30083E309F0A3DFFA806489828A83E0A3F6D9
:1004D30008DFFA805889828A83E0A3F208DFFA8072
:1004E3004C80D280FA80C680D4806980F2803380C9
:1004F3001080A680EA809A80A880DA80E280CA8091
:100503003389828A83ECFAE493A3C8C582C8CCC535
:1005130083CCF0A3C8C582C8CCC583CCDFE9DEE7B2
:10052300800D89828A83E493A3F608DFF9ECFAA9A4
:10053300F0EDFB2289828A83ECFAE0A3C8C582C866
:10054300CCC583CCF0A3C8C582C8CCC583CCDFEAB5
:10055300DEE880DB89828A83E493A3F208DFF980F3
:10056300CC88F0EF60010E4E60C388F0ED2402B436
:10057300040050B9F582EB2402B4040050AF2323E6
:100583004582239004E473EF8DF0A4A8F0CF8CF0A0
:10059300A428CE8DF0A42EFE22BC000BBE0029EFB2
:1005A3008DF084FFADF022E4CCF875F008EF2FFF57
:1005B300EE33FEEC33FCEE9DEC984005FCEE9DFE25
:1005C3000FD5F0E9E4CEFD22EDF8F5F0EE8420D26C
:1005D3001CFEADF075F008EF2FFFED33FD400798DB
:1005E3005006D5F0F222C398FD0FD5F0EA22C2D50A
:1005F300EC30E709B2D5E4C39DFDE49CFCEE30E7A3
:1006030015B2D5E4C39FFFE49EFE12059CC3E49D8F
:10061300FDE49CFC800312059C30D507C3E49FFFD7
:10062300E49EFE22BB010A89828A83E0F5F0A3E0FF
:1006330022500687F009E71922BBFE07E3F5F0090C
:10064300E3192289828A83E493F5F074019322BB30
:100653000110E58229F582E5833AF583E0F5F0A3FD
:10066300E0225009E92582F886F008E622BBFE0A5B
:10067300E92582F8E2F5F008E222E5832AF583E929
:1006830093F5F0A3E99322F8BB0111E58229F582E2
:10069300E5833AF583E8F0E5F0A3F0225009E92574
:1006A30082C8F608A6F022BBFE09E92582C8F2E556
:1006B300F008F222EF4BFFEE4AFEED49FDEC48FC59
:1006C30022C3E49FFFE49EFEE49DFDE49CFC22EB39
:1006D3009FF5F0EA9E42F0E99D42F0E89C45F02246
:1006E300E8600FECC313FCED13FDEE13FEEF13FFF5
:1006F300D8F122E8600FEFC333FFEE33FEED33FD95
:10070300EC33FCD8F122E0FCA3E0FDA3E0FEA3E080
:10071300FF22E493FC740193FD740293FE7403932C
:10072300FF22E493F8740193F9740293FA74039328
:10073300FB22ECF0A3EDF0A3EEF0A3EFF022E493A1
:10074300FB740193FA740293F922D083D082F8E404
:10075300937012740193700DA3A393F8740193F52E
:10076300828883E4737402936860EFA3A3A380DF9A
:100773003E9248DA3ECCCCCD3F2AAAAB40000000E3
:100783003F8000003F9837F03FB504F33FD744FC68
:100793003E3172173EB172173F0515913EDE5BD9AC
:1007A300D2018002C201EDD2E7F8CD33EC330470FD
:1007B3000BBD800592D502041102040740FBD3143C
:1007C30060F2F5F07C3FEE7A00C39496C8948B40B8
:1007D300230AC89469C8941A401A0AC89468C8942A
:1007E3001F40110AC8945AC89425400805F07A009E
:1007F300CDC2E7CDC0F08C518D528E538F54EA2376
:1008030023C0E02483F582E43407F583120725121D
:10081300004DECC0E0EDC0E0EEC0E0EFC0E0120739
:1008230015A851A952AA53AB54120049D0E0FBD0EA
:10083300E0FAD0E0F9D0E0B2E7F81202478C518D2C
:10084300528E538F549007737403120447A851A90F
:1008530052AA53AB5412013ED0E0600F248FF582AD
:10086300E43407F58312072512004D8C518D528E07
:10087300538F54D0E0C3947FFDE49400FC120362D1
:100883007B187A727931783F12013EA851A952AA96
:1008930053AB5412004D30010B7BD97A5B79DE7870
:1008A3003E12013E228F4A8E498D488C47E4FFFE5B
:1008B3007D807C3FAB4AAA49A948A8471202E4704D
:1008C30009AF4AAE49AD48AC4722AF4AAE49AD483D
:1008D300AC4712041CFBAF4EAE4DAD4CAC4B1204F7
:1008E3001CFFBF0108E4FFFE7D807C3F22EF640410
:1008F3006022EB6404601DBB0127E4FFFEFDFCAB3B
:100903004EAA4DA94CA84B1202E460084006E4FF2E
:10091300FEFDFC2274FFF54EF54DF54CF54B020937
:10092300B6E4F54FF550FFFEFDFCAB4AAA49A948D2
:10093300A8471202E4504BAF4EAE4DAD4CAC4B1238
:10094300039B8E4F8F50AC4FAD50EC120362C8EC3B
:10095300C8C9EDC9CAEECACBEFCBAF4EAE4DAD4C55
:10096300AC4B120049E4FBFAF9F81202E470A5AFAC
:100973004AAE49AD48AC471204368F4A8E498D487A
:100983008C47AF4AAE49AD48AC471207A7AB4EAA56
:100993004DA94CA84B12013E1209F78F4E8E4D8D77
:1009A3004C8C4BE55030E00B1204368F4E8E4D8D40
:1009B3004C8C4BAF4EAE4DAD4CAC4B2233DA929ECA
:1009C30035B16011377FE5FE392184893AAEC3FF23
:1009D3003C1D955B3D6358473E75FDF03F317218F2
:1009E3003F800000C2D5020411020407BD80FA5003
:1009F300F302040EED33EC330460F17B3B7AAA7906
:100A0300B8783F12013EED33EC3392D5247B50117D
:100A1300A2D570DB500BED448024045004A2D58092
:100A2300CEEFFBEEFAEDF9ECF812039BEFF582F44F
:100A330004FC12036712004DC0829009BF740912AF
:100A43000456ED33CC33D0F092D525F0A2D5700106
:100A5300C313CC13FD22787FE4F6D8FD75817E02A3
:100A63000AA0023896E493A3F8E493A34003F68024
:100A730001F208DFF48029E493A3F85407240CC897
:100A8300C333C4540F4420C8834004F45680014642
:100A9300F6DFE4800B01020408102040809000037D
:100AA300E47E019360BCA3FF543F30E509541FFE6D
:100AB300E493A360010ECF54C025E060A840B8E4DE
:100AC30093A3FAE493A3F8E493A3C8C582C8CAC561
:100AD30083CAF0A3C8C582C8CAC583CADFE9DEE7F3
:100AE30080BE49AAE6004CF7F4904A9896804C18C9
:100AF30096804C3EBC204CF7F4900085010D011309
:100B030001140084008B00010100000400100400A4
:100B1300210000070188003C001FF83FC1FF00824D
:100B23000086008700880089008A008C010001018B
:100B3300010201030104010501060107010801097E
:100B4300010A010C01150116011701180119011AF7
:100B53000200020102020203020402050206020766
:100B6300020802090240040004010402040304040D
:100B730004050406040704080409040A040C0440D9
:100B83000081800349010400078000200514067BCF
:100B9300340960013180061200880007318C318CE2
:100BA300042661C1104C88C500098180280C018C82
:100BB300528B2E02008D07FF07FF0000000000008C
:100BC30000000000207000000020008107FF07FFE5
:100BD30040000000000000000000000000001001C1
:100BE30020380020FF0AFDFF0B09FF0B1506FF0B42
:100BF30021FF0B8532310108FA021E010113520253
:100C03000E01008200850100010C010D0084008BA0
:100C13008001000100000000001E040021001FFFEE
:100C2300000700010001001EF83FC1FF0086008796
:100C330000880089008A008C01050106010701086C
:100C43000109010A01150116011701180119011AF9
:100C53000200020102020203020402050206020765
:100C630002080240024104000401040204030404D4
:100C730004050406040704080409040A040C0440D8
:100C83000441008149010400078000200514067B0C
:100C93003007318C318C058C61C1104C000D818083
:100CA300280C618C528C2E02008D07FF07FF000079
:100CB3000000000000000000007000200000008120
:100CC30007FF07FF400000000000000000000000D5
:100CD30000001001203800200000FF0C05FF0C135A
:100CE300FF0C2107FF0C2FFF0C872C2B010AC8FFD9
:100CF3000001010AC8011F000108FA012B010008C5
:100D030000040000FFFAFFF5FFF0FFECFFEAFFEA43
:100D1300FFECFFF2FFFB000600140022002E003858
:100D2300003D003A0030001D0003FFE3FFC1FFA0B8
:100D3300FF85FF74FF72FF80FFA2FFD40014005DE4
:100D430000A700E80118012E012300F4009F0029E9
:100D5300FF9AFEFEFE67FDE5FD8CFD6EFD9AFE1A11
:100D6300FEF30022019D03540530071608E80A89A3
:100D73000BDE0CCD0D4903FF0080000800840085C5
:100D830000AE010102000201020202080400000198
:100D9300F0000001000C07FF07FF0000F8FF000749
:100DA300F0001801000C07FF07FFF10B010C010D08
:100DB300010E010F0110011101120113011401159C
:100DC3000116011701180119011A04000401040294
:100DD30004030407040A040C0440044104420443CA
:100DE30004090408040604050404008188E5009E40
:100DF300204030C609940083403203DF008D000594
:100E03008180280C218C31802E02008107FF07FF8F
:100E13004000070010012098FF0D7FFF0D8FFF0D8D
:100E23009F08FF0DAFFF0DEF20160084008500AE75
:100E3300010C010D01130115011904000001F0005B
:100E430000000046000C00000000F8FF0007F0005F
:100E5300001A0046003CC0008000010001010102AD
:100E63000103010401050106010701080109010A43
:100E7300020002010202020802400400040104020B
:100E830004030407040A040C044005C005CB020351
:100E930002040205020602070241040404050406D3
:100EA30004080409044105C105C205C305C405C5F9
:100EB30005C605C705C805C905CA05CC00813408A0
:100EC300600131800A1200880007318C318C0426BE
:100ED30061C1104C008D07FF07FF207000200081C7
:100EE30007FF07FF4000070010002098002000FFC5
:100EF3002020FF0E2DFF0E3DFF0E4D08FF0E5DFF60
:100F03000EC1321A70000081010F0126040A040C7D
:100F13000001001100210002001200220032001320
:100F23000023003300430024003400440054003500
:100F330000450055006500460056006600760057E0
:100F430000670077008700680078008800980079C0
:100F53000089009900A900AA00BA00CA00DA00DBE0
:100F630000EB00FB010B011B012B013B014B015B60
:100F7300016B017B018B019B01AB01BB01CB01DB4E
:100F830001EB01FB01FC01FD01FE01FF0021002F2C
:100F93000081008200840084008500850086008C27
:100FA300009200A700A800A800AD00AE0100010454
:100FB3000105010A010C01140115011A0200020CBA
:100FC300024002610400040F04400461050005A708
:100FD30005C005C0011C011D011E011F01210122C5
:100FE3000123AD430400078036403404033F067BEE
:100FF30000FF00FF00FFC3740F9FFFE49EFE7B0F03
:101003007A00E4FDFC1227C8985005AE04AF052210
:10101300D3EF9BEA1227CC984005AE02AF032222FE
:101023008F3B8E3A8D398C38F1BD8E3C8F3DB1F0BC
:101033008F3E123179B1F68F3FE4FBFAF978409095
:101043000AE51239BB123AC94013E4FBFAF97840B6
:10105300900AE91239BB123AC9600540037F08229E
:101063007E0B7FE7121CB3E53EFB7A007D107F13F6
:101073007E0151D7E53FB41F047B168003E53FFB98
:1010830012317751D7AF3BAE3AAD39AC381235197F
:10109300EF6001227B0151CF123046C2047553E247
:1010A3007552B8755100123C6C60012251CD12305B
:1010B30046D204755356755221755103123C6C6028
:1010C3000122AD3DAC3C121848121811D2047554DC
:1010D3008075539675521875514B122B5FC204E4F9
:1010E300F554F553F552F551F555122916123AC137
:1010F3006002500D7D017C00123B967B0F7A0080CD
:101103006BE53ED394014015123BEB123B4C78C187
:10111300F1698E408F41123B9D8F428023E53E64EF
:1011230001701A123BEB123B0CFA797078C1F1692A
:101133008E408F41123B9DEF04F54280037F0922CD
:10114300AF42EF3395E01100EFF5837BFF7A0FAFEA
:1011530041AE401108EE4583FCEFFD123B96AE40D5
:10116300AF41123B9D120FF9AA06AB071227A851F4
:10117300D7E53F75F00A84FCE4120367123C187F3D
:10118300667E667D267C3F1208A8E4FBFA79D77851
:101193004312013E7B337AB379DC78C212004D7B74
:1011A3009A7A9979A378411236F17841F1698F409F
:1011B300AF3F123723EFFDAF40EF25E0FC123C5E5B
:1011C300123C0F123AC9400241627B021227EFF12F
:1011D300EE91897FFC7EBE7D00123B12FA79CE78B8
:1011E300C2F1697BFF7A07E4FDFC11088E448F4549
:1011F3007546057FC07EE17D647C4B91AC1202E4B1
:1012030050037546047F807E967D187C4B91AC120B
:1012130002E450037546037F807E967D987C4A9155
:10122300AC1202E450037546027F007E1B7D377CBF
:101233004A91AC1202E450037546017F007EE67DBD
:10124300AA7C4991AC1202E45003E4F546E5463327
:10125300333354F84544FCE545FD123C6580631285
:101263003AC1600250477B011227EFF1E391897F76
:101273005E7ED07DB2123B12FA794878C2F1697B67
:10128300FF11038F441236FAAF43AE42AD41AC4077
:10129300120247E4FBFA794078C0F1697B07110336
:1012A3008F45EFFAE544FB7DA07F1680117B031287
:1012B30027EF7E0151D77B027A007DFD7F187E01E7
:1012C30051D7F1941237407F00227B027A007D10C0
:1012D3007F207E008A7B8B7CA9058F828E831237C9
:1012E300E2E9C4540FFFE9540FFBC3EF9B123C2107
:1012F3008005C333CE33CED8F9F4FFEEF4FEEFA866
:1013030003088005C333CE33CED8F9F57E8E7DE94D
:10131300540FFFE57CAE7BA807088005C333CE33AB
:10132300CED8F9FFE57D5EFEE57E5FFFE57EF4FB4B
:10133300E57DF45CFCEB5DFDEC4EFCED4FFDAF8217
:10134300AE8302184CE4F56C756D7F756F80757014
:10135300FFF56EF571300613756901756A21756BBA
:10136300A3FBFA7D217F1C7E018011756900756ADC
:101373008B756B81E4FBFA7D217F86FE51D77F510C
:101383007E497D9D7C38123BD91227A2C374FF9FEF
:10139300F51E74FF9EF51DE4FBFAB1C2BF03037F84
:1013A30001227BFFB1C0EF70037F0122E4F5727568
:1013B3007340E57360479182246CF8E64573F6B198
:1013C300BF8F74E574B4030B9182246CF8E66573E4
:1013D300F68022E5746402701C9182246D917F244F
:1013E3006CF8E6D39F500E9182246EF876019177C4
:1013F300246DF8A607E573C313F57380B5918224B2
:101403006DF8E6601CB1BFEF6402600D9177246D47
:10141300F8E6C39F500B0680089182246DF816806E
:10142300DC0572E572C394024085E5716018C3E57B
:101433006C956DFFC3E56F9570FEC39F4008EE1377
:101443002570F572800BC3E56C956DC313256DF59F
:1014530072E572B1BFEF6402600F0572E572FB7A49
:1014630000AD6BAF6AAE6951D7B1CABF02037F004B
:10147300227F0122E57275F003A4246CF8E6FFE5F0
:101483007275F003A4227DFD7F187E0151D77F661C
:101493007E667DA67C3FAB3BAA3AA939A8381201E8
:1014A3003E8F438E428D418C40AB43AA42A941A853
:1014B3004022F1BD8E418F42C203121D5BA20192F5
:1014C30003D12A8F40E5407078122808122C262079
:1014D300026F2001227D877F0D7E01B1F6BF020BD3
:1014E300E4FBFA7D55F1EC7D338009E4FBFA7D667C
:1014F300F1EC7D44121CAC51CD7D661220134E706D
:10150300127B01FA7D66122FBC7B0151CFE4FBFAFB
:10151300122FBAAD42AC4112184812395DA20192A2
:10152300031226338F40E5407017E4FBFA7DDDF1AB
:101533006F7B007A5079C37847122908C2031232AD
:10154300627DA07F027E04B1F68E438F44122FA4E6
:10155300B1F68E458F467DB0F1F68E478F48D203A4
:10156300121D5BAD42AC41121848E5406002FF22F8
:10157300200221AB44AA437DA07F027E0451D7AB56
:1015830046AA45122FA451D7AB48AA477DB07F0383
:101593007E0451D7F14CE54230E007E4FBFA7D6667
:1015A3008005E4FBFA7D77F152E4FBFA7D20121FFC
:1015B300B3E4FBFA7D88121FB37F0022FB7A00ADF0
:1015C3006BAF6AAE6951D7A2069207C28CE51DF5CF
:1015D3008CE51EF58AC28DD28C308DFD3007067ED8
:1015E300017F2380047E007F8C7DDC80067D107F5D
:1015F300137E01A905F1C1AC06AD07E9C4540F126E
:101603003C218005C333CE33CED8F9F4FFEEF45C2E
:10161300FEED5FFFE9540FFDEFA805088005CEC37B
:1016230013CE13D8F9FF22F1BD8E4A8F4B7E0E7F66
:10163300F5121CB3E54B540364017006FBFA7D22DB
:101643008005E4FBFA7D117F82FE51D7300326E546
:101653001213135401FFC374029FF54CFB123BB0EA
:101663007D877F0D7E01B1F6E51254036F7001EEA5
:1016730060277F06227D877F0D7E01B1F6EE70160F
:10168300EF14600B24FE600704700B7B0180027B68
:1016930002123BB080037F062251CD7D66122013D8
:1016A3004E7037123C2A51D7123073D2041235FAD6
:1016B300C004C005C006C007F182122492D007D02F
:1016C30006D005D0041200497B407A54790978CBBF
:1016D30012004D122799C20480317B0151CF121F92
:1016E300FB40037F0322C2041235FA123C4551CD5D
:1016F300123073D204F182123C3C12004D7B407ACB
:10170300547909784B12004D12279912201C8F49E6
:10171300AD4BAC4A121848E5496002FF221218117A
:101723001233BF8F49E549600122122FF5D20475A8
:10173300544075535475520975514B122B5FF18008
:1017430012290041C57E0251D77B017A007DFF7FBC
:10175300C07E0541D77B007AC8792F784C120247A7
:10176300E4FBFAF9783F12004D02039B7F0C7E04E1
:1017730051D7E4FBFA7D777F0C7E0451D7C204E492
:10178300FBFA79A07840AF18AE17AD16AC1502027C
:1017930047F1BD8E508F51E55154036402701A1204
:1017A3003C2AF1E5E4FD7F0DF1E37DEE7F007E0150
:1017B30051D7AD51AC50121848227F207E00123B06
:1017C300A4121FCAD2A27D10D2A01237EA30A303FB
:1017D300430301C2A0DDF1D2A1D2A2AE02AF032224
:1017E3007E0151D77B017A00227F0C7E0151D7E421
:1017F300FBFA227F037E04A1F68E788F798D7AE43B
:10180300FBFA1217E5AD7AAF79AE780212D77DFFF6
:101813007C7F112E7D557F007E021217FC7D007C9C
:1018230080112E7D667F007E0280CE7F0C7E02803B
:1018330018E52F2401FFE433FEE53154FCFDEE45AA
:1018430030FCEF4DFD7F207E00123B89F1CAAF03D0
:10185300AE02F1CAD2A1D2A222F1F21217BD8E308A
:101863008F31752B0B752C0B752D1F752E1FC20910
:10187300C201711C7DFF7F811235F34E702DF52F50
:1018830011347DFA7F087E01F1817DFAF16C7DA62A
:101893007401FFFEF1817D95F16C7D517401FFFEB2
:1018A300F1817D40F16C123C5640D57B017A007D7D
:1018B300FF7F817E001212D7E4F52F11347B1F7A4C
:1018C300007D95F1DB7B047A007D40F1DB123BBBAD
:1018D300FDACF0711575F040A4FFE5F04CFEEF4D43
:1018E300F192C201C2021214B58F2A7D007C107FCF
:1018F3000A7E04114CE4FBFA7D66F1B37D777F0C1D
:101903007E041215F6EF4E700E7B01FA7DFEF1B3E5
:10191300E4FBFA7DCCF1B37F007E041217C1EE54D1
:101923000FFEF179A60608A607123C56408D122831
:1019330008300A026104E4F52FE52FC3940250F145
:10194300C2001134F179E6FC08E6FDF173F179E6A2
:10195300FE08E6FFEE4480FCAD07F173123BFD8FFA
:101963003A8E39F538F537123B3BC004C005C00643
:10197300C007F18978021206F6D003D002D001D055
:10198300001206B78F3A8E398D388C37123B7BF5B0
:1019930083120709123BF4C31206D270026100E4FA
:1019A300FFFEFDFCA837C31206D270026100F18965
:1019B300123B7BF583120735742B252FF8E6FFD3F3
:1019C3009409500CC3740B9F75F003A4F53680087B
:1019D300E6FFC3740F9FF536123B20E412035DC08C
:1019E30004C005C006C007F189E412035D12249206
:1019F300D007D006D005D0041202471207A3123C29
:101A03004E12013E8F358E348D338C32F1BA503BFA
:101A13007F007E407D017C00123BF41206D2402BF6
:101A2300711524F4FFE434FFFE7B1F121003742DA1
:101A3300252FF8A607742B252FF8E624FDFFE434A1
:101A4300FFFE7B0F121008742B807BF1BA4014F158
:101A5300BA607A40787115FFE536241FC39FD3948B
:101A630000406A7115FFC3741E95362FF53BFC12B7
:101A73000367AB35AA34A933A8321217697B3D1229
:101A83001003F1E274132FF582740F3EF583E49390
:101A9300F53C740193F53D540FF9F53EE53CC4F86C
:101AA30054F0C8E53DC4540F48541FFFF53F71156A
:101AB300B53F0A742B252FF8E6653E6010742B257D
:101AC3002FF8A601742D252FF8A607D20030002D7C
:101AD3007115FF123723EF753C0033333354F8F598
:101AE3003B711575F040A4FFE53B45F0FCE53C4F29
:101AF300FD123BBBFFEC45F0FEED4FF192052F21AC
:101B03003CD201711CAD31AC301148F12DD209AF7B
:101B13002A22742D252FF8E6221217BD8E408F41FD
:101B2300E4F5427902E4F543E54154FCFFE540FC6A
:101B3300EF45431147E543C39405502AE54325E0A8
:101B4300240930010E1227E0F19DE0FCA3E0FD1112
:101B53004C800D1227E01217C1F19DEEF0A3EFF0B8
:101B63000542054380CF19E970BBAD41AC407F20EE
:101B73007E00014C1217BD8E2B8F2CE52C54036471
:101B8300017006FBFA7D448005E4FBFA7D337F8216
:101B9300FE1212D77E0E7F1B91B3122FF51233BFA5
:101BA300A907E96001227B011212CF123073D2041C
:101BB3001235FAC004C005C006C0071217821224EA
:101BC30092D007D006D005D0041200497B007A24B6
:101BD300797478C912004D8F308E2F8D2E8C2DC2C3
:101BE3000412279912201CA907E96009AD2CAC2B1C
:101BF3001148AF01221212CD7B017A007D66122FAC
:101C0300BCF1FB4009AD2CAC2B11487F0422AD2C59
:101C1300AC2B11481111D20412178212290B7DBA71
:101C23007F037E011215F68F2D30014EE4FBFA7D02
:101C3300777F0C7E011212D7E52D64016006E52D36
:101C430064027033E5125403F52EFB7A0091AAE582
:101C53002E24FFFFE434FFFEEFF4FBEEF4FA7D21C4
:101C630091ACE52D147F0070027F01E5121313542C
:101C73003F6F60307F07227F0722E52D64016009F3
:101C8300E52D640260037F0722E52D2401FBE43385
:101C9300FA91AAF1EA7D657F0C7E011212D7F1EA6F
:101CA3007D4391AC0212C57D877F0D7E010212D761
:101CB3008E508F518F828E83740993F552E5526053
:101CC3003F14F553B154B143FFAEF0C006C007B1A2
:101CD30046FFAEF01217C1E5512406B13CF4FDE511
:101CE300F0F45EFEEF5DFFB154A3A3A3B143FDEE99
:101CF30045F0FCEF4DFDD007D006114C155280BDC9
:101D0300B154741093F552E552602D14F553E55117
:101D1300240AB13CFFAEF0B154741193FDE552D3E4
:101D23009D40067C007D008009E551240DB13CFDFA
:101D3300ACF0114C155280CF22F582E43550F58377
:101D430012074175F002E553A4F58285F08302067C
:101D53005285518285508322E4F549F54A7F20FE5E
:101D63001217C18E4D8F4E20030A9003E8E54DF004
:101D7300A3E54EF07924E9605225E0248BF582E453
:101D8300340FF583E493F54B740193F54CE925E0A7
:101D9300248DF582E4340FF583C3740193954CE4E9
:101DA30093954B4022300306F119F1618007F10E40
:101DB300ECF0A3EDF0054AE54A70020549054CE550
:101DC3004C7002054B80C6191980ABE4F9E924FD78
:101DD300FDE434FFFC1148754B01754C1C300306C0
:101DE300F119F1618007F10EECF0A3EDF0054AE57E
:101DF3004A70020549054CE54C7002054BD3942308
:101E0300E54B940140D709E9640270C130030CF13A
:101E13002D9003E8E0FCA3E0FD8004AD4EAC4D0142
:101E230048F1F2900AEDF1004009900AF9F10060DF
:101E33000540037F0A22123B1A120247123BD0903D
:101E43000AF1F10060184016900AF5F100500FE412
:101E5300FBFAF97840900AF51239BB123BD0C20362
:101E6300B15B123C061229718F2AE52A7059122898
:101E730008E4FBFA123AB11217F0123AAA1212D777
:101E83007E0C7FFB12259A1239B2AB29AA28A92707
:101E9300A8261202E4600250047D70800F7B027A50
:101EA300007D607F1A7E011212D77DF87F097E01C3
:101EB3001239C18F2A7DC87F0A7E011215F68E2B37
:101EC3008F2C7F09123BC6D203B15BE52A6002FF68
:101ED30022AB2CAA2B123AB87D8C7C317F067E0173
:101EE300114C7D8C7F077E01114CAD2EAC2D7F09EB
:101EF3007E01114C123C0612396E7F002212071527
:101F0300AB25AA24A923A8220202E4AF4CAE4B12AC
:101F130017C1AC06AD07E54A25E0FFE54933FE747A
:101F2300002FF58274003EF583227F2B12376EE576
:101F3300836402FCAD82F15BAD82AC83F15B12176B
:101F4300BD8E838F82E5835455FCAD821148AD82EB
:101F5300AC837F207E00014C7F2B7E00014CE0FC94
:101F6300A3E0FDAF4CAE4B014C7F257E010212D79F
:101F73007F007E04014CE52F25E02426F82212156C
:101F8300F6AA06AB0722AF3AAE39AD38AC3722AC6E
:101F9300064402FD7F267E01014CE54225E024EA4A
:101FA300F582E43403F583221212D7E4FBFA7D773A
:101FB3007F0C7E040212D7E4FFFEFDFCAB35AA348E
:101FC300A933A8320202E47D10C2A0EE3392A2F13B
:101FD300E2D2A0DDF4C2A0227F0F7E010212D7EF6E
:101FE30025E0FFEE33FE22E52D6403FB7A00228F0A
:101FF300258E248D238C22227DDC7F231115640200
:102003004E7002D322D206121348EFC37001D322BB
:102013007F1C7E011215F6EF2278547C007D007B35
:10202300FF7A0F79F37E007F061205641217BD8EC7
:102033005A8F5BC2057A003004047B0280027B0165
:102043001212D1756407AF6412370CAB53AA52A9AD
:1020530051A85012013E123C337F667E7F7D62F1B0
:102063004D400C7F267EE57DE5F14D60054003D5AF
:1020730064D4E56424FFFBE434FFFA7D867F1F7E8E
:10208300011212D77FAC7EE97DA3F14D7F0060047E
:1020930040027F018F68EFFB7A007DAA122FBCE517
:1020A300682401FDE433FCE4120362123BD9918FEF
:1020B3001228F5123BE21236EA9192F1B612004968
:1020C300E4FBFA79807849F1A2123703E4FFFE7D3D
:1020D300807CC0AB63AA62A961A860121769AB07D1
:1020E300AA067DD4F1AFAF67AE66AD65AC641237B7
:1020F30017F1AFE567FFE566FEAD07AC067F1D7E12
:102103000112184CE4F55DF55CE55CF135D206127D
:102113001348EF701B7DA37F2111152480FFEE343C
:10212300FFFEE55C25E02454F8A60608A607D205C1
:10213300F12B08E6FF12002DC006C007E55CF12D68
:1021430008E6FF12002DD005D004F1C8985003858E
:102153005C5D055CE55CC3940340AE300514E55D4E
:10216300F135F12B08E62480FBE43EFA7DA3F13A36
:1021730080357D707F207E011215F68E5E8F5FE5C0
:102183005FF4455E6021E55F2420FFE4355EFED306
:10219300EF94FFEE940040067A007BFF8004AA06CA
:1021A300AB071230792107AD5BAC5A1218482005F2
:1021B300087F033004027F04227F0022121FF2E40F
:1021C300F5287D107F13111564014E701AFF7E24CC
:1021D3007D747C4A121F03500E752C00752B2475D9
:1021E3002AF4752949800E123B1A1202478F2C8E4E
:1021F3002B8D2A8C29C203121D5BAF2CAE2BAD2A6B
:10220300AC291210238F28E52860028109122808BF
:102213007E0B7FFFB19A7E0B7FF9B19A7FFA7EED39
:102223007DEB7CBA9176122FE9120247123C4E12D3
:102233000247123C187F007E007D207C411208A8D3
:10224300C004C005C006C007F1D3783F12013ED0D9
:1022530003D002D001D000F1A28E268F277F607EAB
:10226300FE7D4D7C4C91761202E460044002619D38
:10227300F1BF9185F18EF10360028109F1BF7C3FCB
:10228300917612013E12290B123C0F91761202E451
:102293005011752D01752E177531A0753202752FEA
:1022A30008800F752D01752E167531707532017505
:1022B3002F017530007DFB7F167E011215F68F34DA
:1022C300852F3D85303EAB27AA26AD31AF2EAE2DEF
:1022D300919B8F33EF6036B40204AF328005E53251
:1022E300F404FFEF2534F534C364809480401EE585
:1022F300346480F8741F6480984012E534FB33958E
:10230300E0FA7DFB7F167E011212D780B3E53360BE
:102313000575280C8109F184F10360028109123BE0
:102323005D122B5F1215F08F35E53564036005E50B
:1023330035B40207917F123B4C800DE535B4011390
:10234300917F123B0CFA797078C11217698E338F23
:1023530034800575280981097BFF7A0FE4FDFCAF02
:1023630034AE331210088E338F34AB34AA337DB0BE
:10237300123B298F36E535B401020536AF367E00B0
:10238300121001AA06AB077DFC123B29120FF9AA12
:1023930006AB07F1A81212D7800CF184F103706623
:1023A300123B5D122B5F753D10753E00AB27AA26CD
:1023B3007DB07F127E01919BEF600575280D8046ED
:1023C3007F12123BC67F177E011217C18E2F8F30EB
:1023D3007F1A7E011217C18E318F327F167E011252
:1023E30017C1EE5407F5338F347D327F157E01120A
:1023F30015F68F357DFD7F187E011215F68F36F1A8
:10240300A81215F68F37D203121D5BE5286002FF71
:1024130022AD2EAC2D123B96AD30AC2F123C65ADE8
:1024230032AC31123C5EE5334480FCAD347F167E22
:102433000112184CE536C43354E04401FC748CFD9E
:102443007F187E0112184CE53775F020A4ACF044D8
:1024530010FD7F147E0112184C7B947A027DE57F78
:10246300197E011212D7E535FBF1EF7E011212D767
:102473007F0022AB2CAA2BA92AA829227FEC7E510C
:102483007D387C3FAB2CAA2BA92AA82912013EA890
:1024930004A905AA06AB07228E388F398D3A8A3BE9
:1024A3008B3CB1529192F10A50028001C39200AD6C
:1024B3003AAF39AE381215F68E3F8F40E53AC45421
:1024C3000FFFE53A540FFEC3EF9E04FFF1F6EF242E
:1024D300FFF542EE34FFF541754300754401E544D1
:1024E30025E0F544E54333F543300004F16780020A
:1024F300F15A123AD4B1529192F10A7F0050027FFD
:1025030001A200E433B50713C3E544953EE54395C3
:102513003D40CB7F013000027F0222D3E54494018A
:10252300E5439400401DE54313F543E54413F544A7
:10253300B1529192F10A4004F15A8002F167123AC2
:10254300D480D87F0022AD73AF72AE711212D7C29E
:102553008CE513F58CE514F58AC28DD28C308DFD94
:102563007DFF7F007E041217FC123BFD8F778E7672
:10257300F575F574123B3BC004C005C006C007AF38
:1025830077AE76AD75AC7478021206F6D003D0023E
:10259300D001D0000206B77D007C278E388F398C9E
:1025A3003A8D3B8F828E83F1E7740293FD1215F609
:1025B3008F3EB1528E3C8F3DC3EF953BEE953A7FF4
:1025C3000050027F01D12C7405936F704074039304
:1025D300FF253EF53ED3EF648094804009F141D35B
:1025E300F12340028027D12C740393C36480948029
:1025F3005007F141C3F1234014D12CF1E774029346
:10260300FDE53EFB3395E0FA1212D780A5D3E53DF5
:10261300953BE53C953A7F0040027F01D12C740540
:1026230093B50703D38001C322853982853883227A
:102633008F4C8E4B8D4A8C497DFA7F087E01121593
:10264300F68F4F7B017A007DDD7F0C7E04121FAB7A
:10265300C204E4FBFA79A07840AF4CAE4BAD4AAC70
:102663004912024712290030032675500F800EF1DC
:102673001540401550E550648094804036E550FB8A
:102683003395E0FA7D517401FFFED1FB8F4E80DF5D
:10269300755002800FF115401A05500550E550D3CF
:1026A300940F500FE550FB7A007D527F13D1F98FC1
:1026B3004E80E2C3E54D94105010054F054FE54F92
:1026C30094395006D1F08F4E80E9F115400F054F34
:1026D300E54FD3943E5006D1F08F4E80EDC3E54EC7
:1026E3009421E54D940B7F0050027F0522E54FFBBB
:1026F3007A007DFA7F087E011212D7B1528E4D22E5
:10270300111C8F28E52822AE3BAF3CE4FCFDC3023D
:1027130006D2D3900F07740193954EE493954D22FF
:10272300ED9F7480F86C9822E55D25E02454F8E66B
:10273300FE22FB7A007D217F217E010212D77404E1
:1027430093FFAD3EED3395E0FC227C4FAB5FAA5E79
:10275300A95DA85C0202E4E5442540F540E5433564
:102763003FF53F22C3E5409544F540E53F9543F5EA
:102773003F22120627FFAEF0AD49AC48122D63A1EC
:1027830052C204AB2CAA2BA92AA8297FE27EB87DCA
:10279300007C4E1200498F538E528D518C50221261
:1027A300013E02039B7D857F147E01227F1E7E01F5
:1027B3000212D7AF63AE62AD61AC6022C2047F6622
:1027C3007E667DA622C3EF9DEC6480F8EE648022D2
:1027D300B152E412035D7B817A04793522F582E4F8
:1027E300340FF583E493FE740193FF227A007D3264
:1027F3007F152274017E00A807088005C333CE33FA
:10280300CED8F9FF227D207F0A7E041215F6E47EDE
:1028130001A807088005C333CE33CED8F9F54A8E15
:10282300497DEC1217F68F4BE54BC39406500F749A
:1028330002A807088002C333D8FCF54B8003754B0D
:1028430001C20511ADE4FBFAF97840120247C00456
:10285300C005C006C007AC4BE4120367122492D034
:1028630007D006D005D004120247C004C005C00635
:10287300C007AC49AD4AE4120362D003D002D001D1
:10288300D000120247123C451236CA123C3C1201D8
:102893003EE4FBFA7940784112024712039BC3746A
:1028A300FF9FF51474FF9EF5132212355E123C331D
:1028B3007DCB7F897E001215F612370C12249211FC
:1028C300F5123BE21235EF4E700A3005030227B6CC
:1028D30011ED801E30050AAF5FAE5EAD5DAC5C806E
:1028E3000811ED1227B612024722E4FBFA79807829
:1028F3004022AF5FAE5EAD5DAC5C0202477B007A07
:102903005079C378C712004D8F548E538D528C511A
:10291300E4F555E55575F002A4FFAEF07C043004F0
:10292300027C027D42EF2DF557EE3CF556A2049250
:102933000511AD122492AF54AE53AD52AC511236C1
:10294300F1784F1227A28F5B8E5A8D598C587810CD
:102953001206E3AD07AC06AF57AE5612184CE55757
:102963002401FFE43556FEAC5AAD5B02184C8F329E
:102973008E318D308C2F1217BD8E338F347E0C7FAA
:10298300DD121CB3714812396E1239B2713F120253
:10299300E460044002412F7FCD7ECC7D4C7C3F71AF
:1029A3003FF1E9123AF37BCE7A4079E878B8120125
:1029B3003EC004C005C006C00771297B957AB7796C
:1029C30015782512013ED003D002D001D0001200A9
:1029D3004DC004C005C006C007F1B271317B757AE2
:1029E300EC7935783B12013ED003D002D001D00000
:1029F30012004DC004C005C006C0077FB47E4E7DE3
:102A0300A87C41F1DED003D002D001D00012004DEA
:102A13007B157AA3794178C21217698E398F3A7B75
:102A2300FF121003AA06AB077D7041BAF1EC71489F
:102A3300123AF37B347A0A795D78B912013EC00405
:102A4300C005C006C00771297B667A27799478355B
:102A530012013ED003D002D001D00012004DC004B9
:102A6300C005C006C007F1B271317BAC7A0D799C09
:102A7300783C12013ED003D002D001D00012004DA9
:102A8300C004C005C006C0077F437E727DB77C3F8C
:102A9300F1DED003D002D001D00012004D7BC37A07
:102AA300C7793E78C21217698E398F3A7BFF1210AD
:102AB30003AA06AB077DF87F097E011212D771487E
:102AC300123519EF6001227B011212CF7B017A00CC
:102AD300F1BA1212CD7B017A00F1BAAD34AC3312E4
:102AE3001848121811D20475540075532475527482
:102AF300715CD204853254853153853052852F5110
:102B030075550131167151C2047F007E507DC37C1F
:102B1300C7713F12004D8F548E538D528C51755592
:102B23000131160212C5E4F54EF54D754C80754B17
:102B330040AF38AE37AD36AC350208A8AB32AA3158
:102B4300A930A82F22AF32AE31AD30AC2F22C20450
:102B53007554007553BA75525B755149E4F55521A7
:102B6300161217BD8E228F23C203121D5BA2009281
:102B730001121B778F24E524702411089126A200EB
:102B830092011230828F24E524701391261217804C
:102B930012318A3108D1A27151D2031232627DA05F
:102BA3007402FFFE1215F68E258F267DA07F017E0F
:102BB300021215F68E278F287DB07F037E02121531
:102BC300F68E298F2AD203121D5BAD23AC22121875
:102BD30048E5246002FF22AB26AA257DA07402FFEC
:102BE300FE1212D7AB28AA277DA07F017E02121204
:102BF300D7AB2AAA297DB07F03121748E52330E01B
:102C030007E4FBFA7D448005E4FBFA7D5512175275
:102C1300F1D57E021217F07D107F087E021212D7C3
:102C23007F0022754905754AC7F1C38F4BE4FBFA50
:102C3300FDFF1217E37D227F0C7E0412174AE54B3A
:102C4300B40116E4FBFA7D66121752E4FBFA7D2207
:102C53001217527D30F1CC801FE4FBFA7D771217F7
:102C630052E4FBFA7D331217527DC0F1CC74022576
:102C73004AF54AE43549F5497FC17E051217C1EE8D
:102C830054F070F4E4FBFAF1A41212D7C203AF4A72
:102C9300AE4991BD7BFF7A07F1A41212D7E54A240E
:102CA30001FFE43549FEC20391BDE4FBFA7D221224
:102CB3001FB3F1ABFF7E010212D78E4C8F4D300351
:102CC300067E037FFF80047E007F3F8E588F59AFBF
:102CD3004DAE4C1233538E558F568E538F5412254F
:102CE300528E4F8F508E518F52E5562401FFE4359B
:102CF30055123B6C121008AC06AD07AF4DAE4C122B
:102D0300277F122492AE4FAF5012270E7FFF50023F
:102D13007F018F57754E08AF57EF3395E0FEE556A9
:102D23002FFFE5553E123B6C1210088E558F56ADA2
:102D330056AC55AF4DAE4C12277F8E4F8F50C3E527
:102D4300509552E54F9551500C854F518550528502
:102D53005553855654D54EBFAD54AC53AF4DAE4CC1
:102D63008E5A8F5B8C5C8D5DC3E55B94C7E55A948B
:102D73000550067E037FFF80047E007F3F8E5E8FBB
:102D83005FE4F560F561C3E55C64809480501AE507
:102D93005F2401FFE4355EFEEF4261EE4260E55DD4
:102DA300255FFFE55C355E800FE55D255FCFE55C64
:102DB300355ECF2401CF3400FE12002DE55E5EFEAA
:102DC300E55F5F4261EE4260AD61AC60AF5BAE5AFE
:102DD30012184CE5604480FCAD61AF5BAE5A02183B
:102DE3004C8B3F8A40894174FFF542F543900005BF
:102DF300120652F54785F046900007120652F54930
:102E030085F0481227758E448F45C3E5499547FFE2
:102E1300E548954612334840561233418E4A8F4B4C
:102E2300F19C9544AB3FAA40A94150091227758EE6
:102E3300448F458011120627FFAEF0AD47AC461212
:102E4300277F8E428F43E54B454A6023F19C95448F
:102E5300500FC3E549954BF549E548954AF5488038
:102E6300A9E54B2547F547E54A3546F546809BF1ED
:102E73009C95445006AE46AF478004AE48AF49AB7D
:102E83003FAA40A941900003EE8FF012068A120672
:102E930027FFAEF0900003120652FDACF0A163F1E0
:102EA300C38F3DF1ABFF1217EE7D887F087E0212C0
:102EB3001FABF1D5121748752DA07536A0E53DB4AB
:102EC300011A752B05752CC37534057535C4E4FBE0
:102ED300FA7D44121752E4FBFAFD8019752B057530
:102EE3002CC57534057535C6E4FBFA7D55121752AA
:102EF300E4FBFA7D11121752E4FDFCAF2CAE2BB1AB
:102F030063E4FDFCAF35AE34B163E4F52EF52FF584
:102F130037F538F53EF1901227E5C3E52F9FFFE51E
:102F23002E9EFE7BFF7A037D007CFC1210088E3000
:102F33008F31F190F583740193252FFFE493352EA0
:102F4300FE1210088E328F33F1901227E5C3E53855
:102F53009FFFE5379EFE1210088E398F3AF190F5E8
:102F6300837401932538FFE4933537FE1210088EDE
:102F73003B8F3C7B007A00792BB1E47B007A0079AC
:102F830034B1E4053EE53EC39403408922E53E2582
:102F9300E02479F582E4340D22C3E5439545E54207
:102FA300227DA07F017E04227B017A00E4FD22E4DE
:102FB300F54EF54DF54C227D117F1C7E010212D793
:102FC3007D107F207E000215F67CFF7FC27E050206
:102FD300184C7B017A007D337F0822AB38AA37A9CE
:102FE30036A83502013E12013E7B007A24797478BB
:102FF3004922E4F912302DE912301A12184C09B99A
:103003003CF2E9C39478500E112DC3747799111AC9
:1030130012184C0980EC2225E02401F582E4340DDA
:10302300F583E493FC740193FD22E975F02884751C
:10303300F018A4FFE92400FDE43405CD2FFFED359E
:10304300F0FE227907E925E024D5F582E4340F1256
:1030530027E5E925E024E3F582E4340F1123121870
:103063004CD9E27BFF7AB97DF87F207E010212D72B
:1030730011467BFF7A007D707F207E010212D77597
:103083002B50752C00E4FBFA7D2212176FE4FBFA38
:10309300F9784012013E318A12290831791215F666
:1030A3008F2D300113E4F52EE52EFB7A007D967FFC
:1030B300137E011212D7802B7D521215F28F2E80B0
:1030C300223180507BE52EC3940F5074052EE52EDC
:1030D300FB7A003001047D9680027D527F137E01CE
:1030E3001212D7316F80DAE52DC39419505AE52EA9
:1030F300640F705431805050E52DC3941950490525
:103103002DE52DFB31771212D7316FAC2FAD30E4A3
:10311300120362C004C005C006C007AC31AD32E47F
:10312300120362122492D007D006D005D0041202F3
:10313300477B667A667986783F1202E4600250081C
:10314300852F31853032809FC3E5309421E52F945C
:103153000B50057E007F05227B017A00121FB17B95
:10316300017A007D22121FB3E4FEFF221225528E44
:103173002F8F30227A007D407F197E0122C3E530F4
:10318300952CE52F952B227B007ABA795B7849221F
:103193008F6674FFF567F568A807E82405F8E6F578
:1031A3006B08E6F56CA807E82407F8E6F56D08E672
:1031B300F56EA807E6F57108E6F572A807E824029C
:1031C300F8E6F573AB6EAA6DFD12254B8E698F6A17
:1031D300C3E56E956CFFE56D956B71484054714185
:1031E3008E6F8F7071309569500DAB6EAA6D12257D
:1031F300498E698F6A800BAB6CAA6B1225498E6767
:103203008F68D3E5709400E56F64809480402371E8
:10321300309569500FC3E56E9570F56EE56D956F4A
:10322300F56D80ACE570256CF56CE56F356BF56B72
:10323300809E713095695006AE6BAF6C8004AE6DA5
:10324300AF6EE5662403F8A60608A607E566240321
:10325300F8E6FA08E6FBAD73AF72AE710212D77BE4
:10326300FF7A0D79018B498A4A894B755BA07552A8
:10327300B0300310754E02754F017402F54CF54DD5
:10328300F550800F754E04754F01754C04754D0252
:103293007550047551037557007558807555FF7542
:1032A30056807F5031937DBF71387DFF7129122580
:1032B300528E628F637DFF71387DBF712912255253
:1032C3008E648F65C3E5639565E5629564500885F3
:1032D3004C59854D5A8006854E59854F5A7DFF7C42
:1032E3000771297560077561FF755E05755FFF7F5F
:1032F300593193E5542410F558E43553F557E55403
:1033030024F0F556E55334FFF5557F503193AD5D09
:10331300AC5CAF5AAE5912184CAB54AA53AD52AF72
:1033230051AE500212D7AF4FAE4E02184CC3E568F0
:10333300956AE567227C07AF4DAE4C02184C7C00C2
:103343007D020205F1FEC3EF9401EE6480948022B6
:103353008F828E83C3E58294C7E583940550067EEE
:10336300037FFF80047E007F3F8E5A8F5BAF82AE68
:1033730083E4FDFC71B77D007C4071B71217C18EE9
:103383005C8F5DAF82AE83E55C543FFCAD5D12188C
:103393004CE55C555AFEE55D555BFFE55B2401FD9D
:1033A300E4355A555CFCE55D5D4C60077CFF7DFFB1
:1033B30012058A2212184CAF82AE8322B15E121715
:1033C30058B1468F50E55025E025E0F551B1EF6443
:1033D300014E70127DCB7F89FE1215F61227F6E59A
:1033E300518FF084F55175523FE552600FE551C39B
:1033F30095525008E552C313F55280EDE552FB7A1E
:10340300007D707F077E041212D7AC50B1511201B8
:103413003E8F568E558D548C5391F87FD77E3C7DCD
:10342300AF7C4ED1F178BF1217698F5F91F87FEDB2
:103433007E127D667C4E12024712039B8F60E5600D
:10344300255FFFE433C313EF13F5612401FFE43376
:10345300FEEF25E0FDEE33FCE412036291F8120166
:103463003E8F5A8E598D588C57E561FB7A007DA3A8
:103473007F89B1018F5E8E5D8D5C8C5BE4FFFE7D89
:10348300807CBFAB5EAA5DA95CA85B121769AB0722
:10349300AA067DD47F88B101D1EA122492AF5EAE31
:1034A3005DAD5CAC5B1200498F628E618D608C5F99
:1034B300E4FFFE7D807C49AB62AA61A960A85F122C
:1034C30027A28F668E658D648C63E4AB07AA067DA5
:1034D300F07F87FE1212D7AF66AE65AD64AC63F1C1
:1034E300177F887E001212D7C206121348EF7F009F
:1034F30060027F0222AB56AA55A954A853227E002C
:103503001212D7AB1CAA1BA91AA819AF5AAE59ADF0
:1035130058AC570202478F4A8E498D488C47E4FFC7
:10352300FE7DA07C41AB4AAA49A948A84712013EA7
:10353300121758B146AC07B15112013ED1FA12002D
:103543004D81147B0D7A007D027C00021008E41289
:1035530003677B007AC8792F784C227DA37F89B1DA
:10356300F32401B1E7C004C005C006C007E4FBFAB9
:10357300F97840D1CA120247D003D002D001D0005B
:10358300120247F1037DD07F887E001215F68E6804
:103593008F697DF07F877E001215F6E4FCFDC00481
:1035A300C005C006C007FEE569D1D3D003D002D061
:1035B30001D0001206B7D1DCC004C005C006C007A5
:1035C300E568D1C2E569C4540F482401B1E7D003CB
:1035D300D002D001D00012004DAB67AA66A965A83E
:1035E3006402013EFDE43EFCE40203627DBB7F8690
:1035F3007E001215F6EF221217BD8E508F517A00FE
:103603003004047B0280027B011212D17DD07F1E25
:103613007E011215F68E528F537F1D7E011217C144
:10362300E4FCFDC004C005C006C007FEE553D1D3CA
:10363300D003D002D001D0001206B78F578E568D1B
:10364300558C547DAA12201304F5587D867F1F12D2
:10365300201504F559AD51AC50121848AF59F10C6F
:10366300122492D1CA120247C004C005C006C00783
:10367300AC58E4120367D003D002D001D00012018A
:103683003EC004C005C006C007AF57AE56AD55AC2B
:1036930054D1DCC004C005C006C007E552D1C2E561
:1036A30053C4540F482404B1E7D003D002D001D04F
:1036B3000012004DD003D002D001D00002013EC45D
:1036C300F854F0C868FE22AF1CAE1BAD1AAC192229
:1036D300540FFFE478100206F6E412035DE4FBFAEC
:1036E3007980784902024712039BE402035D1202C8
:1036F30047E4FBFA7980227B807A967918784B220B
:103703008F678E668D658C64221227F6AC06AD0733
:10371300E402036278101206E3AB07AA067D3022A7
:10372300EFC3941550037F0122EFC3940D50037F21
:103733000222EFC394087F0050027F03227F82F1AD
:103743006E1217BDAD07AC06ED5403640170084358
:1037530005145382EB80064305285382F51218485B
:10376300AD82AC837F827E0002184C7E001217C1AB
:103773008F828E8322123966F170AF09AE08F1E2AF
:10378300AF82AE83F18C7F0022123B89F19CAF03A1
:10379300AE02F19CD2A1D2A2227D10C2A0F1B4EE5E
:1037A3003392A2F1B4121FE2D2A0F1B4DDEDC2A0B4
:1037B30022C28C758CFF758AF0C28DD28C308DFD40
:1037C30022123BA4F19CD2A27D10D2A0F1B4F1EA63
:1037D30030A303430301C2A0F1B4DDEE0217DA12F2
:1037E30017C1AD07AC0622EB25E0FBEA33FA22E56D
:1037F3000CAD0DFCE4120362E4FBFA797A7844120F
:103803000247C004C005C006C007AC0BE41203673F
:10381300D003D002D001D00012004D122FEC1201C0
:103823003E121FF230000A8F1C8E1B8D1A8C1980DA
:103833000C852518852417852316852215E4F59014
:1038430022C0E0C0D075D000C000C006C00775908C
:10385300FF7F02740A2FF8E6FE740B2FF8A606DF2B
:10386300F285800B759000D007D006D000D0D0D061
:10387300E0327590FF85800AD20AD208323166128F
:1038830017C11237C4AD07AC06AF11AE1012184CF6
:103893007F00227581D0E4F5A27591FFF59075A1A3
:1038A3000775A9FF75A880758901C2A0D2A1300848
:1038B300FDE50A12074D38E70038EE0138F2023809
:1038C300F60338FA04390105390A06391307391A98
:1038D3000839200939280A394211394B123956FF60
:1038E30000003959C2083009FD8035C2008052C238
:1038F300018057C2008002D2001237F28058315D36
:103903001221BF8F90804F315D121E248F9080460D
:103913001237788F90803F11808F908039850B12FA
:10392300E4F5908031E4F590C20A7F2DFE1217C1B1
:10393300E4FCFD78021206F612185C8F908017D211
:1039430000122B648F90800ED201C2021214B58F25
:10395300908003759005C20801B1AF18AE17AD167C
:10396300AC15227590FFAF0FAE0E228F3E8E3D8DAC
:103973003C8C3B7F057E011217C18E3FEF54E9F566
:103983004031B2AB3EAA3DA93CA83B1202E460021F
:10399300500F434010122FAB7F0B7E011212D780C2
:1039A30003434006AD40AC3F7F057E0102184CE463
:1039B300FBFAF97840900AF11207150202478E2F9D
:1039C3008F308D31753206E4FBFA51AA1217F0518C
:1039D300B11212D71227D3783F1227A28E338F3416
:1039E3007B017A0051AA1217E551B11212D71225A1
:1039F30052122492AE33AF3412270E500CE4F53535
:103A0300753619D201C202800A75351F7536F6C2A2
:103A130001D2023001067E0C7FEF80047E0C7FF51D
:103A2300AD34AC3312259E92002000497DC87F0A35
:103A330012201565357001EE703BAD31AF30AE2FFE
:103A43001215F68F37E5376003B4FF037F0022AF0B
:103A530036EF3395E0FEE5372FFFE43EFE7BFF12A2
:103A63001003AA06AB07AD31AF30AE2F1212D77BCE
:103A7300107A00801D30021C7DC87F0A7E0112155A
:103A8300F68F370537AF377E007B1F1210038F3752
:103A9300EFFB51B81532200006E532600221CA7FE0
:103AA3000E3000027F00227D417F407E02227D4155
:103AB3007F407E04227DC87F0A7E010212D77F6089
:103AC3007EFE7D4D7C4CAB3BAA3AA939A838020255
:103AD300E4AB42AA41E4FDFCAF40AE3F1210088EB6
:103AE3003F8F40AB40AA3FAD3AAF39AE380212D751
:103AF3001202478F388E378D368C35E4F54EF54DEF
:103B0300754C40754B400208A87FBB7EEE7DA07CC0
:103B13004F120247E4FB22E4FBFAF97840AF25AEEB
:103B230024AD23AC22227F127E011212D7AE33AF13
:103B3300347C007D6402059C7F0E7E041217C17ED7
:103B430000EF5403FFE4FCFD227F887E457DC87CA3
:103B53004E120247E4FBFA792022C204852C5485D5
:103B63002B53852A5285295122FEC3E49559FDE43E
:103B73009558FCAB59AA5822E52F25E025E024FEF1
:103B8300F582E4340322AB05AA04C2A0C2A1EE4429
:103B930080FE227F127E0102184C7C007D640205A8
:103BA300F1E4FBFAC2A0C2A1EE547FFE227A007DAB
:103BB300BA7F037E010212D7742B252FF8E675F026
:103BC30004A4227E011217C18E2D8F2E228F298EDF
:103BD300288D278C2622AB1CAA1BA91AA819228F71
:103BE300638E628D618C6022AB3BAA3AA939A838F7
:103BF30022AB3AAA39A938A837227F0F7E041217BD
:103C0300C1E422AF29AE28AD27AC26227F407E54E3
:103C13007D897C4B228F4E8E4D8D4C8C4B2204FF25
:103C230074FFFEA80708227B01FA7D107F20FE2285
:103C33008F5F8E5E8D5D8C5C22AB4FAA4EA94DA823
:103C43004C228F4F8E4E8D4D8C4C22E4FBFA79A083
:103C5300784122052FE52FC39402227F1A7E0102A9
:103C6300184C7F177E0102184C75504E12201CEF22
:013C7300222E
:00000001FF
