:06000000020041020108AC
:03000B00020412DA
:03001300020120C7
:03001B000204AA32
:030023000207B41D
:03002B000207E4E5
:01003300329A
:03003B0002079623
:03009A0002003E23
:03003E00020A01B2
:20009D0075907F7582FF75830374A1F074FFE0F530C394A17002C29078FE75BF0374A2F2E0
:2000BD0074FFE2F531C394A27002C29179FD75BF0374A3F374FFE3F532C394A37002C292F6
:2000DD00750FA4740FF8E6F533C394A47002C293790E77A5E50EF534C394A57002C294000D
:2000FD0075EC3575880575A8850022C0E0C0D074A6F535C394A67004C295C2A80000D0D041
:20011D00D0E032C0E0C0D074A7F536C394A77004C296C2AA0000D0D0D0E032759077758C35
:20013D001F758A52758DFE758BA375891075885075A88A752B07752C07002275907775EC3F
:20015D0011758CFC758AFC758DFC758BFE75896675885075A88A752B07752C0700227590AF
:20017D007775A8A075CAA375CBFE75CCA375CDFE75C80C752D07002275907775EC11758CE7
:20019D00FE758A0A75890175881075A882759800C29FD29E75CA9F75CBFF75CC9F75CDFF74
:2001BD0075C804D2CC752B07752D007599AA002275907775EC11758921758CFE758A0A7596
:2001DD008BF0758DF075878075885075A882759800C29FD29ED29C752C00752B07752D00F7
:2001FD00002275907775EC1175ED35758CFC758AFE758DFC758BFC7589EE75885075A88A67
:20021D00752B07752C07752D0000227590FF752B64752000752101752202752303752404A9
:20023D00752505752606752707E52B79A0F794647002C2907401C2D3C2D478202879A1F771
:20025D0094217002C291742179242979A2F794457002C29274457924989979A3F79401705C
:20027D0002C2937401D2D3C2D47821792526F5F027F5F079A4F794077002C2947407782181
:20029D0079259697F5F0C2D3D2D47822792625222526F5F079A5F794097002C29574097935
:2002BD0026952297F5F0D2D3D2D478237927262407F5F079A6F7740B7927940397F5F0794B
:2002DD00A7F77401C2D3C2D478237921D3383735253401F5F079A8F7742C782304F5F00894
:2002FD0088F0E8F5F079A9F794247002C296E521792107E779AAF794027002C29700227561
:20031D0090FFC2D3C2D4752B0578087508077F0374055F79B0F794017002C290740856793F
:20033D00B1F794007002C2917409522B532B0FE52B79B2F794017002C29274014F752B0C1B
:20035D00452B79B3F7940F7002C2937403464401422BE52B79B4F7940F7002C294740F688A
:20037D00652B66640579B5F7940A7002C295632B05E52B79B6F7940A7002C296740FF4C409
:20039D002333333333130379B7F794787002C29700227590FFD3C3D200C200400679C077F7
:2003BD00AAC290B3500679C177AAC291B20000B20010000679C277AAC2928200B0004006CB
:2003DD0079C377AAC2937200400679C477AAC294C3400679C577AAC295A000500679C67777
:2003FD00AAC296D200A200B3920010000679C777AAC2970022C0E0C007C000C0D075D00037
:20041D007828B62010E52B2440F8A62B758C1E758AA30080527828B6300AE52B2450F8A6B7
:20043D002B0080437828B6501CE52B2470F8A62BE52B94007006C2CCC299C2CA758CFE757F
:20045D008A0A0080227828B66010E52B2480F8A62B758CFE758A0A00800D7828B67008E5BE
:20047D002B2490F8A62B00782CE6C454F0FF782BE62FF590782BE67006C28CC2A980057834
:20049D002B16D28CD0D0D000D007D0E032C0E0C007C000C0D075D0007828B6200E758DFEF7
:2004BD00758BA3E52C2448F8A62C007828B63008E52C2458F8A62C007828B67008E52C244D
:2004DD0098F8A62C00782CE6C454F0FF782BE62FF590782CE67006C28EC2AB8005782C16D3
:2004FD00D28ED0D0D000D007D0E0327590FF78000874FE48F8740F58F818740F98F8D80248
:20051D007802D3740138C328780668B40006788876AAC29079000974FE49F9740F59F919A3
:20053D00740F99F9D9027902D3740139C329790669B40006788976AAC2917A000A74FE4A70
:20055D00FA740F5AFA1A740F9AFADA027A02D374013AC32A7A066AB40006788A76AAC2929B
:20057D007B000B74FE4BFB740F5BFB1B740F9BFBDB027B02D374013BC32B7B066BB40006A2
:20059D00788B76AAC2937C000C74FE4CFC740F5CFC1C740F9CFCDC027C02D374013CC32CA3
:2005BD007C066CB40006788C76AAC2947D000D74FE4DFD740F5DFD1D740F9DFDDD027D0241
:2005DD00D374013DC32D7D066DB40006788D76AAC2957E000E74FE4EFE740F5EFE1E740F99
:2005FD009EFEDE027E02D374013EC32E7E066EB40006788E76AAC2967F000F74FE4FFF747F
:20061D000F5FFF1F740F9FFFDF027F02D374013FC32F7F066FB40006788F76AAC297227570
:20063D0090FF74FF75F0FFA4B4010F78B8F6C290E5F0B4FE05C29178B9F674AA75F0BBA46F
:20065D00B42E0F78BAF6C292E5F0B47C05C29378BBF674CC75F099A4B4EC0F78BCF6C29477
:20067D00E5F0B47905C29578BDF6740075F0FFA4B4000F78BEF6C296E5F0B4000578BFF656
:20069D00C297227590FF74FF75F00184B4FF0F78C8F6C290E5F0B40005C29178C9F674AAE1
:2006BD0075F00B84B40F0F78CAF6C292E5F0B40505C29378CBF674CC75F00984B4160F7827
:2006DD00CCF6C294E5F0B40605C29578CDF674FF75F00084B4000F78CEF6C296E5F0B40083
:2006FD000578CFF6C297227590FFC340057537A8C290D350037537A8D20020000375370053
:20071D003000057538A9C29110000375380074AA700375380074006003753800752B00B507
:20073D002B037539AA746FB46F05753AABC292747F7903B90103753A007820752007B60791
:20075D0005753BACC293752B01D52B05753CADC294F17E753EAF7801D805753FB0C295E1A9
:20077D0092740290078473E189E18C00753C00753DAEC2962200C29722C0E0C000C0D07584
:20079D00D0007828A6807828E654F0F678297601D0D0D000D0E032C0E0C007C000C0D07550
:2007BD00D000309815782C7600782CE6C454F0FF782BE62FF590C28EC2ACC298C299D0D074
:2007DD00D000D007D0E032C0E0C000C0D075D000C2CFC2CEE52D2460F8A62D00782D869001
:2007FD00782DE67006C2CAC2AD8003782D16D0D0D000D0E032000000000000000000000050
:20081D0000000000000022AE82AF83C2A0C2A1430780786C7600087680787876107878E604
:20083D006034786CE65EFC08E65FFD4C6004D2A28002C2A2786DE618C313C613C608F6C079
:20085D0007C006120812D2A0120812D006D007C2A078781680C7786C7600087680787876CA
:20087D00107878E6602E786CE65508FE08E65509FF4E6004D2A28002C2A2786DE618C313B2
:20089D00C613C608F6120812D2A0120812C2A078781680CDD2A1D2A2120812C2A022AE8258
:2008BD00AF83C2A0C2A1786C7600087680787876107878E66034786CE65EFC08E65FFD4C32
:2008DD006004D2A28002C2A2786DE618C313C613C608F6C007C006120812D2A0120812D0C0
:2008FD0006D007C2A078781680C7D2A2786C7600087680786AE4F608F6787876107878E67D
:20091D006029120812D2A030A30C786A796CE746F609E70846F6786DE618C313C613C60836
:20093D00F6120812C2A078781680D2D2A1D2A2120812C2A022782F760278687680087602B2
:20095D00786886820886831208BB786A796EE6F70809E6F7786A7655087655786A86080820
:20097D00860978688682088683120824786AE4F608F6786886820886831208BB786AB6551F
:20099D000B08B65507782F1678797655786A76AA0876AA786A8608088609786886820886F5
:2009BD0083120824786AE4F608F6786886820886831208BB786AB6AA0B08B6AA07782F1658
:2009DD00787A76AA786E796AE6F70809E6F7786A860808860978688682088683120824789E
:2009FD002F8690227581D075A2007591FF75A10778FF74000075A90475A8807829B601FB77
:200A1D00782976007828B6100512009D80ED7828B6200512013880E37828B63005120158FC
:200A3D0080D97828B6400512017B80CF7828B6500512019580C57828B660051201CD80BB5A
:200A5D007828B670051201FF80B17828B6800512022880A77828B6900612031C020A187874
:200A7D0028B6A0061203AF020A187828B6B006120704020A187828B6C006120508020A1841
:200A9D007828B6D00612063C020A187828B6E0061206A0020A187828B6F0028003020A188E
:070ABD00120952020A18227F
:06007000E478FFF6D8FD64
:20004E007900E94400601B7A00900AC8780175A000E493F2A308B8000205A0D9F4DAF27586
:02006E00A0FFF1
:200076007800E84400600A790175A000E4F309D8FC7800E84400600C7900900001E4F0A388
:04009600D8FCD9FABF
:0D004100758120120AC4E582600302003EB2
:040AC4007582002215
:00000001FF
